{
  "contractName": "MyNFT",
  "abi": [
    {
      "inputs": [
        {
          "internalType": "string",
          "name": "name",
          "type": "string"
        },
        {
          "internalType": "string",
          "name": "symbol",
          "type": "string"
        }
      ],
      "stateMutability": "nonpayable",
      "type": "constructor"
    },
    {
      "anonymous": false,
      "inputs": [
        {
          "indexed": true,
          "internalType": "address",
          "name": "owner",
          "type": "address"
        },
        {
          "indexed": true,
          "internalType": "address",
          "name": "approved",
          "type": "address"
        },
        {
          "indexed": true,
          "internalType": "uint256",
          "name": "tokenId",
          "type": "uint256"
        }
      ],
      "name": "Approval",
      "type": "event"
    },
    {
      "anonymous": false,
      "inputs": [
        {
          "indexed": true,
          "internalType": "address",
          "name": "owner",
          "type": "address"
        },
        {
          "indexed": true,
          "internalType": "address",
          "name": "operator",
          "type": "address"
        },
        {
          "indexed": false,
          "internalType": "bool",
          "name": "approved",
          "type": "bool"
        }
      ],
      "name": "ApprovalForAll",
      "type": "event"
    },
    {
      "anonymous": false,
      "inputs": [
        {
          "indexed": false,
          "internalType": "uint256",
          "name": "_fromTokenId",
          "type": "uint256"
        },
        {
          "indexed": false,
          "internalType": "uint256",
          "name": "_toTokenId",
          "type": "uint256"
        }
      ],
      "name": "BatchMetadataUpdate",
      "type": "event"
    },
    {
      "anonymous": false,
      "inputs": [
        {
          "indexed": false,
          "internalType": "uint256",
          "name": "_tokenId",
          "type": "uint256"
        }
      ],
      "name": "MetadataUpdate",
      "type": "event"
    },
    {
      "anonymous": false,
      "inputs": [
        {
          "indexed": true,
          "internalType": "address",
          "name": "previousOwner",
          "type": "address"
        },
        {
          "indexed": true,
          "internalType": "address",
          "name": "newOwner",
          "type": "address"
        }
      ],
      "name": "OwnershipTransferred",
      "type": "event"
    },
    {
      "anonymous": false,
      "inputs": [
        {
          "indexed": true,
          "internalType": "address",
          "name": "from",
          "type": "address"
        },
        {
          "indexed": true,
          "internalType": "address",
          "name": "to",
          "type": "address"
        },
        {
          "indexed": true,
          "internalType": "uint256",
          "name": "tokenId",
          "type": "uint256"
        }
      ],
      "name": "Transfer",
      "type": "event"
    },
    {
      "inputs": [
        {
          "internalType": "address",
          "name": "to",
          "type": "address"
        },
        {
          "internalType": "uint256",
          "name": "tokenId",
          "type": "uint256"
        }
      ],
      "name": "approve",
      "outputs": [],
      "stateMutability": "nonpayable",
      "type": "function"
    },
    {
      "inputs": [
        {
          "internalType": "address",
          "name": "owner",
          "type": "address"
        }
      ],
      "name": "balanceOf",
      "outputs": [
        {
          "internalType": "uint256",
          "name": "",
          "type": "uint256"
        }
      ],
      "stateMutability": "view",
      "type": "function"
    },
    {
      "inputs": [
        {
          "internalType": "uint256",
          "name": "tokenId",
          "type": "uint256"
        }
      ],
      "name": "getApproved",
      "outputs": [
        {
          "internalType": "address",
          "name": "",
          "type": "address"
        }
      ],
      "stateMutability": "view",
      "type": "function"
    },
    {
      "inputs": [
        {
          "internalType": "address",
          "name": "owner",
          "type": "address"
        },
        {
          "internalType": "address",
          "name": "operator",
          "type": "address"
        }
      ],
      "name": "isApprovedForAll",
      "outputs": [
        {
          "internalType": "bool",
          "name": "",
          "type": "bool"
        }
      ],
      "stateMutability": "view",
      "type": "function"
    },
    {
      "inputs": [],
      "name": "name",
      "outputs": [
        {
          "internalType": "string",
          "name": "",
          "type": "string"
        }
      ],
      "stateMutability": "view",
      "type": "function"
    },
    {
      "inputs": [],
      "name": "owner",
      "outputs": [
        {
          "internalType": "address",
          "name": "",
          "type": "address"
        }
      ],
      "stateMutability": "view",
      "type": "function"
    },
    {
      "inputs": [
        {
          "internalType": "uint256",
          "name": "tokenId",
          "type": "uint256"
        }
      ],
      "name": "ownerOf",
      "outputs": [
        {
          "internalType": "address",
          "name": "",
          "type": "address"
        }
      ],
      "stateMutability": "view",
      "type": "function"
    },
    {
      "inputs": [],
      "name": "renounceOwnership",
      "outputs": [],
      "stateMutability": "nonpayable",
      "type": "function"
    },
    {
      "inputs": [
        {
          "internalType": "address",
          "name": "from",
          "type": "address"
        },
        {
          "internalType": "address",
          "name": "to",
          "type": "address"
        },
        {
          "internalType": "uint256",
          "name": "tokenId",
          "type": "uint256"
        }
      ],
      "name": "safeTransferFrom",
      "outputs": [],
      "stateMutability": "nonpayable",
      "type": "function"
    },
    {
      "inputs": [
        {
          "internalType": "address",
          "name": "from",
          "type": "address"
        },
        {
          "internalType": "address",
          "name": "to",
          "type": "address"
        },
        {
          "internalType": "uint256",
          "name": "tokenId",
          "type": "uint256"
        },
        {
          "internalType": "bytes",
          "name": "data",
          "type": "bytes"
        }
      ],
      "name": "safeTransferFrom",
      "outputs": [],
      "stateMutability": "nonpayable",
      "type": "function"
    },
    {
      "inputs": [
        {
          "internalType": "address",
          "name": "operator",
          "type": "address"
        },
        {
          "internalType": "bool",
          "name": "approved",
          "type": "bool"
        }
      ],
      "name": "setApprovalForAll",
      "outputs": [],
      "stateMutability": "nonpayable",
      "type": "function"
    },
    {
      "inputs": [
        {
          "internalType": "bytes4",
          "name": "interfaceId",
          "type": "bytes4"
        }
      ],
      "name": "supportsInterface",
      "outputs": [
        {
          "internalType": "bool",
          "name": "",
          "type": "bool"
        }
      ],
      "stateMutability": "view",
      "type": "function"
    },
    {
      "inputs": [],
      "name": "symbol",
      "outputs": [
        {
          "internalType": "string",
          "name": "",
          "type": "string"
        }
      ],
      "stateMutability": "view",
      "type": "function"
    },
    {
      "inputs": [
        {
          "internalType": "uint256",
          "name": "tokenId",
          "type": "uint256"
        }
      ],
      "name": "tokenURI",
      "outputs": [
        {
          "internalType": "string",
          "name": "",
          "type": "string"
        }
      ],
      "stateMutability": "view",
      "type": "function"
    },
    {
      "inputs": [
        {
          "internalType": "address",
          "name": "from",
          "type": "address"
        },
        {
          "internalType": "address",
          "name": "to",
          "type": "address"
        },
        {
          "internalType": "uint256",
          "name": "tokenId",
          "type": "uint256"
        }
      ],
      "name": "transferFrom",
      "outputs": [],
      "stateMutability": "nonpayable",
      "type": "function"
    },
    {
      "inputs": [
        {
          "internalType": "address",
          "name": "newOwner",
          "type": "address"
        }
      ],
      "name": "transferOwnership",
      "outputs": [],
      "stateMutability": "nonpayable",
      "type": "function"
    },
    {
      "inputs": [
        {
          "internalType": "address",
          "name": "to",
          "type": "address"
        },
        {
          "internalType": "uint256",
          "name": "tokenId",
          "type": "uint256"
        },
        {
          "internalType": "string",
          "name": "tokenURI",
          "type": "string"
        }
      ],
      "name": "mintNFT",
      "outputs": [],
      "stateMutability": "nonpayable",
      "type": "function"
    }
  ],
  "bytecode": "0x608060405234801562000010575f80fd5b5060405162003390380380620033908339818101604052810190620000369190620002d4565b8181815f90816200004891906200058e565b5080600190816200005a91906200058e565b5050506200007d620000716200008560201b60201c565b6200008c60201b60201c565b505062000672565b5f33905090565b5f60075f9054906101000a900473ffffffffffffffffffffffffffffffffffffffff1690508160075f6101000a81548173ffffffffffffffffffffffffffffffffffffffff021916908373ffffffffffffffffffffffffffffffffffffffff1602179055508173ffffffffffffffffffffffffffffffffffffffff168173ffffffffffffffffffffffffffffffffffffffff167f8be0079c531659141344cd1fd0a4f28419497f9722a3daafe3b4186f6b6457e060405160405180910390a35050565b5f604051905090565b5f80fd5b5f80fd5b5f80fd5b5f80fd5b5f601f19601f8301169050919050565b7f4e487b71000000000000000000000000000000000000000000000000000000005f52604160045260245ffd5b620001b08262000168565b810181811067ffffffffffffffff82111715620001d257620001d162000178565b5b80604052505050565b5f620001e66200014f565b9050620001f48282620001a5565b919050565b5f67ffffffffffffffff82111562000216576200021562000178565b5b620002218262000168565b9050602081019050919050565b5f5b838110156200024d57808201518184015260208101905062000230565b5f8484015250505050565b5f6200026e6200026884620001f9565b620001db565b9050828152602081018484840111156200028d576200028c62000164565b5b6200029a8482856200022e565b509392505050565b5f82601f830112620002b957620002b862000160565b5b8151620002cb84826020860162000258565b91505092915050565b5f8060408385031215620002ed57620002ec62000158565b5b5f83015167ffffffffffffffff8111156200030d576200030c6200015c565b5b6200031b85828601620002a2565b925050602083015167ffffffffffffffff8111156200033f576200033e6200015c565b5b6200034d85828601620002a2565b9150509250929050565b5f81519050919050565b7f4e487b71000000000000000000000000000000000000000000000000000000005f52602260045260245ffd5b5f6002820490506001821680620003a657607f821691505b602082108103620003bc57620003bb62000361565b5b50919050565b5f819050815f5260205f209050919050565b5f6020601f8301049050919050565b5f82821b905092915050565b5f60088302620004207fffffffffffffffffffffffffffffffffffffffffffffffffffffffffffffffff82620003e3565b6200042c8683620003e3565b95508019841693508086168417925050509392505050565b5f819050919050565b5f819050919050565b5f62000476620004706200046a8462000444565b6200044d565b62000444565b9050919050565b5f819050919050565b620004918362000456565b620004a9620004a0826200047d565b848454620003ef565b825550505050565b5f90565b620004bf620004b1565b620004cc81848462000486565b505050565b5b81811015620004f357620004e75f82620004b5565b600181019050620004d2565b5050565b601f82111562000542576200050c81620003c2565b6200051784620003d4565b8101602085101562000527578190505b6200053f6200053685620003d4565b830182620004d1565b50505b505050565b5f82821c905092915050565b5f620005645f198460080262000547565b1980831691505092915050565b5f6200057e838362000553565b9150826002028217905092915050565b620005998262000357565b67ffffffffffffffff811115620005b557620005b462000178565b5b620005c182546200038e565b620005ce828285620004f7565b5f60209050601f83116001811462000604575f8415620005ef578287015190505b620005fb858262000571565b8655506200066a565b601f1984166200061486620003c2565b5f5b828110156200063d5784890151825560018201915060208501945060208101905062000616565b868310156200065d578489015162000659601f89168262000553565b8355505b6001600288020188555050505b505050505050565b612d1080620006805f395ff3fe608060405234801561000f575f80fd5b5060043610610109575f3560e01c806370a08231116100a0578063a22cb4651161006f578063a22cb465146102a1578063b88d4fde146102bd578063c87b56dd146102d9578063e985e9c514610309578063f2fde38b1461033957610109565b806370a082311461022b578063715018a61461025b5780638da5cb5b1461026557806395d89b411461028357610109565b80631e576912116100dc5780631e576912146101a757806323b872dd146101c357806342842e0e146101df5780636352211e146101fb57610109565b806301ffc9a71461010d57806306fdde031461013d578063081812fc1461015b578063095ea7b31461018b575b5f80fd5b61012760048036038101906101229190611b81565b610355565b6040516101349190611bc6565b60405180910390f35b6101456103b5565b6040516101529190611c69565b60405180910390f35b61017560048036038101906101709190611cbc565b610444565b6040516101829190611d26565b60405180910390f35b6101a560048036038101906101a09190611d69565b610486565b005b6101c160048036038101906101bc9190611ed3565b61059c565b005b6101dd60048036038101906101d89190611f3f565b6105bd565b005b6101f960048036038101906101f49190611f3f565b61061d565b005b61021560048036038101906102109190611cbc565b61063c565b6040516102229190611d26565b60405180910390f35b61024560048036038101906102409190611f8f565b6106c0565b6040516102529190611fc9565b60405180910390f35b610263610774565b005b61026d610787565b60405161027a9190611d26565b60405180910390f35b61028b6107af565b6040516102989190611c69565b60405180910390f35b6102bb60048036038101906102b6919061200c565b61083f565b005b6102d760048036038101906102d291906120e8565b610855565b005b6102f360048036038101906102ee9190611cbc565b6108b7565b6040516103009190611c69565b60405180910390f35b610323600480360381019061031e9190612168565b6109c1565b6040516103309190611bc6565b60405180910390f35b610353600480360381019061034e9190611f8f565b610a4f565b005b5f634906490660e01b7bffffffffffffffffffffffffffffffffffffffffffffffffffffffff1916827bffffffffffffffffffffffffffffffffffffffffffffffffffffffff191614806103ae57506103ad82610ad1565b5b9050919050565b60605f80546103c3906121d3565b80601f01602080910402602001604051908101604052809291908181526020018280546103ef906121d3565b801561043a5780601f106104115761010080835404028352916020019161043a565b820191905f5260205f20905b81548152906001019060200180831161041d57829003601f168201915b5050505050905090565b5f61044e82610bb2565b60045f8381526020019081526020015f205f9054906101000a900473ffffffffffffffffffffffffffffffffffffffff169050919050565b5f6104908261063c565b90508073ffffffffffffffffffffffffffffffffffffffff168373ffffffffffffffffffffffffffffffffffffffff1603610500576040517f08c379a00000000000000000000000000000000000000000000000000000000081526004016104f790612273565b60405180910390fd5b8073ffffffffffffffffffffffffffffffffffffffff1661051f610bfd565b73ffffffffffffffffffffffffffffffffffffffff16148061054e575061054d81610548610bfd565b6109c1565b5b61058d576040517f08c379a000000000000000000000000000000000000000000000000000000000815260040161058490612301565b60405180910390fd5b6105978383610c04565b505050565b6105a4610cba565b6105ae8383610d38565b6105b88282610f4b565b505050565b6105ce6105c8610bfd565b82610fed565b61060d576040517f08c379a00000000000000000000000000000000000000000000000000000000081526004016106049061238f565b60405180910390fd5b610618838383611081565b505050565b61063783838360405180602001604052805f815250610855565b505050565b5f806106478361136d565b90505f73ffffffffffffffffffffffffffffffffffffffff168173ffffffffffffffffffffffffffffffffffffffff16036106b7576040517f08c379a00000000000000000000000000000000000000000000000000000000081526004016106ae906123f7565b60405180910390fd5b80915050919050565b5f8073ffffffffffffffffffffffffffffffffffffffff168273ffffffffffffffffffffffffffffffffffffffff160361072f576040517f08c379a000000000000000000000000000000000000000000000000000000000815260040161072690612485565b60405180910390fd5b60035f8373ffffffffffffffffffffffffffffffffffffffff1673ffffffffffffffffffffffffffffffffffffffff1681526020019081526020015f20549050919050565b61077c610cba565b6107855f6113a6565b565b5f60075f9054906101000a900473ffffffffffffffffffffffffffffffffffffffff16905090565b6060600180546107be906121d3565b80601f01602080910402602001604051908101604052809291908181526020018280546107ea906121d3565b80156108355780601f1061080c57610100808354040283529160200191610835565b820191905f5260205f20905b81548152906001019060200180831161081857829003601f168201915b5050505050905090565b61085161084a610bfd565b8383611469565b5050565b610866610860610bfd565b83610fed565b6108a5576040517f08c379a000000000000000000000000000000000000000000000000000000000815260040161089c9061238f565b60405180910390fd5b6108b1848484846115d0565b50505050565b60606108c282610bb2565b5f60065f8481526020019081526020015f2080546108df906121d3565b80601f016020809104026020016040519081016040528092919081815260200182805461090b906121d3565b80156109565780601f1061092d57610100808354040283529160200191610956565b820191905f5260205f20905b81548152906001019060200180831161093957829003601f168201915b505050505090505f61096661162c565b90505f81510361097a5781925050506109bc565b5f825111156109ae5780826040516020016109969291906124dd565b604051602081830303815290604052925050506109bc565b6109b784611642565b925050505b919050565b5f60055f8473ffffffffffffffffffffffffffffffffffffffff1673ffffffffffffffffffffffffffffffffffffffff1681526020019081526020015f205f8373ffffffffffffffffffffffffffffffffffffffff1673ffffffffffffffffffffffffffffffffffffffff1681526020019081526020015f205f9054906101000a900460ff16905092915050565b610a57610cba565b5f73ffffffffffffffffffffffffffffffffffffffff168173ffffffffffffffffffffffffffffffffffffffff1603610ac5576040517f08c379a0000000000000000000000000000000000000000000000000000000008152600401610abc90612570565b60405180910390fd5b610ace816113a6565b50565b5f7f80ac58cd000000000000000000000000000000000000000000000000000000007bffffffffffffffffffffffffffffffffffffffffffffffffffffffff1916827bffffffffffffffffffffffffffffffffffffffffffffffffffffffff19161480610b9b57507f5b5e139f000000000000000000000000000000000000000000000000000000007bffffffffffffffffffffffffffffffffffffffffffffffffffffffff1916827bffffffffffffffffffffffffffffffffffffffffffffffffffffffff1916145b80610bab5750610baa826116a7565b5b9050919050565b610bbb81611710565b610bfa576040517f08c379a0000000000000000000000000000000000000000000000000000000008152600401610bf1906123f7565b60405180910390fd5b50565b5f33905090565b8160045f8381526020019081526020015f205f6101000a81548173ffffffffffffffffffffffffffffffffffffffff021916908373ffffffffffffffffffffffffffffffffffffffff160217905550808273ffffffffffffffffffffffffffffffffffffffff16610c748361063c565b73ffffffffffffffffffffffffffffffffffffffff167f8c5be1e5ebec7d5bd14f71427d1e84f3dd0314c0f7b2291e5b200ac8c7c3b92560405160405180910390a45050565b610cc2610bfd565b73ffffffffffffffffffffffffffffffffffffffff16610ce0610787565b73ffffffffffffffffffffffffffffffffffffffff1614610d36576040517f08c379a0000000000000000000000000000000000000000000000000000000008152600401610d2d906125d8565b60405180910390fd5b565b5f73ffffffffffffffffffffffffffffffffffffffff168273ffffffffffffffffffffffffffffffffffffffff1603610da6576040517f08c379a0000000000000000000000000000000000000000000000000000000008152600401610d9d90612640565b60405180910390fd5b610daf81611710565b15610def576040517f08c379a0000000000000000000000000000000000000000000000000000000008152600401610de6906126a8565b60405180910390fd5b610dfc5f83836001611750565b610e0581611710565b15610e45576040517f08c379a0000000000000000000000000000000000000000000000000000000008152600401610e3c906126a8565b60405180910390fd5b600160035f8473ffffffffffffffffffffffffffffffffffffffff1673ffffffffffffffffffffffffffffffffffffffff1681526020019081526020015f205f82825401925050819055508160025f8381526020019081526020015f205f6101000a81548173ffffffffffffffffffffffffffffffffffffffff021916908373ffffffffffffffffffffffffffffffffffffffff160217905550808273ffffffffffffffffffffffffffffffffffffffff165f73ffffffffffffffffffffffffffffffffffffffff167fddf252ad1be2c89b69c2b068fc378daa952ba7f163c4a11628f55a4df523b3ef60405160405180910390a4610f475f83836001611756565b5050565b610f5482611710565b610f93576040517f08c379a0000000000000000000000000000000000000000000000000000000008152600401610f8a90612736565b60405180910390fd5b8060065f8481526020019081526020015f209081610fb191906128f1565b507ff8e1a15aba9398e019f0b49df1a4fde98ee17ae345cb5f6b5e2c27f5033e8ce782604051610fe19190611fc9565b60405180910390a15050565b5f80610ff88361063c565b90508073ffffffffffffffffffffffffffffffffffffffff168473ffffffffffffffffffffffffffffffffffffffff16148061103a575061103981856109c1565b5b8061107857508373ffffffffffffffffffffffffffffffffffffffff1661106084610444565b73ffffffffffffffffffffffffffffffffffffffff16145b91505092915050565b8273ffffffffffffffffffffffffffffffffffffffff166110a18261063c565b73ffffffffffffffffffffffffffffffffffffffff16146110f7576040517f08c379a00000000000000000000000000000000000000000000000000000000081526004016110ee90612a30565b60405180910390fd5b5f73ffffffffffffffffffffffffffffffffffffffff168273ffffffffffffffffffffffffffffffffffffffff1603611165576040517f08c379a000000000000000000000000000000000000000000000000000000000815260040161115c90612abe565b60405180910390fd5b6111728383836001611750565b8273ffffffffffffffffffffffffffffffffffffffff166111928261063c565b73ffffffffffffffffffffffffffffffffffffffff16146111e8576040517f08c379a00000000000000000000000000000000000000000000000000000000081526004016111df90612a30565b60405180910390fd5b60045f8281526020019081526020015f205f6101000a81549073ffffffffffffffffffffffffffffffffffffffff0219169055600160035f8573ffffffffffffffffffffffffffffffffffffffff1673ffffffffffffffffffffffffffffffffffffffff1681526020019081526020015f205f8282540392505081905550600160035f8473ffffffffffffffffffffffffffffffffffffffff1673ffffffffffffffffffffffffffffffffffffffff1681526020019081526020015f205f82825401925050819055508160025f8381526020019081526020015f205f6101000a81548173ffffffffffffffffffffffffffffffffffffffff021916908373ffffffffffffffffffffffffffffffffffffffff160217905550808273ffffffffffffffffffffffffffffffffffffffff168473ffffffffffffffffffffffffffffffffffffffff167fddf252ad1be2c89b69c2b068fc378daa952ba7f163c4a11628f55a4df523b3ef60405160405180910390a46113688383836001611756565b505050565b5f60025f8381526020019081526020015f205f9054906101000a900473ffffffffffffffffffffffffffffffffffffffff169050919050565b5f60075f9054906101000a900473ffffffffffffffffffffffffffffffffffffffff1690508160075f6101000a81548173ffffffffffffffffffffffffffffffffffffffff021916908373ffffffffffffffffffffffffffffffffffffffff1602179055508173ffffffffffffffffffffffffffffffffffffffff168173ffffffffffffffffffffffffffffffffffffffff167f8be0079c531659141344cd1fd0a4f28419497f9722a3daafe3b4186f6b6457e060405160405180910390a35050565b8173ffffffffffffffffffffffffffffffffffffffff168373ffffffffffffffffffffffffffffffffffffffff16036114d7576040517f08c379a00000000000000000000000000000000000000000000000000000000081526004016114ce90612b26565b60405180910390fd5b8060055f8573ffffffffffffffffffffffffffffffffffffffff1673ffffffffffffffffffffffffffffffffffffffff1681526020019081526020015f205f8473ffffffffffffffffffffffffffffffffffffffff1673ffffffffffffffffffffffffffffffffffffffff1681526020019081526020015f205f6101000a81548160ff0219169083151502179055508173ffffffffffffffffffffffffffffffffffffffff168373ffffffffffffffffffffffffffffffffffffffff167f17307eab39ab6107e8899845ad3d59bd9653f200f220920489ca2b5937696c31836040516115c39190611bc6565b60405180910390a3505050565b6115db848484611081565b6115e78484848461175c565b611626576040517f08c379a000000000000000000000000000000000000000000000000000000000815260040161161d90612bb4565b60405180910390fd5b50505050565b606060405180602001604052805f815250905090565b606061164d82610bb2565b5f61165661162c565b90505f8151116116745760405180602001604052805f81525061169f565b8061167e846118de565b60405160200161168f9291906124dd565b6040516020818303038152906040525b915050919050565b5f7f01ffc9a7000000000000000000000000000000000000000000000000000000007bffffffffffffffffffffffffffffffffffffffffffffffffffffffff1916827bffffffffffffffffffffffffffffffffffffffffffffffffffffffff1916149050919050565b5f8073ffffffffffffffffffffffffffffffffffffffff166117318361136d565b73ffffffffffffffffffffffffffffffffffffffff1614159050919050565b50505050565b50505050565b5f61177c8473ffffffffffffffffffffffffffffffffffffffff166119a8565b156118d1578373ffffffffffffffffffffffffffffffffffffffff1663150b7a026117a5610bfd565b8786866040518563ffffffff1660e01b81526004016117c79493929190612c24565b6020604051808303815f875af192505050801561180257506040513d601f19601f820116820180604052508101906117ff9190612c82565b60015b611881573d805f8114611830576040519150601f19603f3d011682016040523d82523d5f602084013e611835565b606091505b505f815103611879576040517f08c379a000000000000000000000000000000000000000000000000000000000815260040161187090612bb4565b60405180910390fd5b805181602001fd5b63150b7a0260e01b7bffffffffffffffffffffffffffffffffffffffffffffffffffffffff1916817bffffffffffffffffffffffffffffffffffffffffffffffffffffffff1916149150506118d6565b600190505b949350505050565b60605f60016118ec846119ca565b0190505f8167ffffffffffffffff81111561190a57611909611daf565b5b6040519080825280601f01601f19166020018201604052801561193c5781602001600182028036833780820191505090505b5090505f82602001820190505b60011561199d578080600190039150507f3031323334353637383961626364656600000000000000000000000000000000600a86061a8153600a858161199257611991612cad565b5b0494505f8503611949575b819350505050919050565b5f808273ffffffffffffffffffffffffffffffffffffffff163b119050919050565b5f805f90507a184f03e93ff9f4daa797ed6e38ed64bf6a1f0100000000000000008310611a26577a184f03e93ff9f4daa797ed6e38ed64bf6a1f0100000000000000008381611a1c57611a1b612cad565b5b0492506040810190505b6d04ee2d6d415b85acef81000000008310611a63576d04ee2d6d415b85acef81000000008381611a5957611a58612cad565b5b0492506020810190505b662386f26fc100008310611a9257662386f26fc100008381611a8857611a87612cad565b5b0492506010810190505b6305f5e1008310611abb576305f5e1008381611ab157611ab0612cad565b5b0492506008810190505b6127108310611ae0576127108381611ad657611ad5612cad565b5b0492506004810190505b60648310611b035760648381611af957611af8612cad565b5b0492506002810190505b600a8310611b12576001810190505b80915050919050565b5f604051905090565b5f80fd5b5f80fd5b5f7fffffffff0000000000000000000000000000000000000000000000000000000082169050919050565b611b6081611b2c565b8114611b6a575f80fd5b50565b5f81359050611b7b81611b57565b92915050565b5f60208284031215611b9657611b95611b24565b5b5f611ba384828501611b6d565b91505092915050565b5f8115159050919050565b611bc081611bac565b82525050565b5f602082019050611bd95f830184611bb7565b92915050565b5f81519050919050565b5f82825260208201905092915050565b5f5b83811015611c16578082015181840152602081019050611bfb565b5f8484015250505050565b5f601f19601f8301169050919050565b5f611c3b82611bdf565b611c458185611be9565b9350611c55818560208601611bf9565b611c5e81611c21565b840191505092915050565b5f6020820190508181035f830152611c818184611c31565b905092915050565b5f819050919050565b611c9b81611c89565b8114611ca5575f80fd5b50565b5f81359050611cb681611c92565b92915050565b5f60208284031215611cd157611cd0611b24565b5b5f611cde84828501611ca8565b91505092915050565b5f73ffffffffffffffffffffffffffffffffffffffff82169050919050565b5f611d1082611ce7565b9050919050565b611d2081611d06565b82525050565b5f602082019050611d395f830184611d17565b92915050565b611d4881611d06565b8114611d52575f80fd5b50565b5f81359050611d6381611d3f565b92915050565b5f8060408385031215611d7f57611d7e611b24565b5b5f611d8c85828601611d55565b9250506020611d9d85828601611ca8565b9150509250929050565b5f80fd5b5f80fd5b7f4e487b71000000000000000000000000000000000000000000000000000000005f52604160045260245ffd5b611de582611c21565b810181811067ffffffffffffffff82111715611e0457611e03611daf565b5b80604052505050565b5f611e16611b1b565b9050611e228282611ddc565b919050565b5f67ffffffffffffffff821115611e4157611e40611daf565b5b611e4a82611c21565b9050602081019050919050565b828183375f83830152505050565b5f611e77611e7284611e27565b611e0d565b905082815260208101848484011115611e9357611e92611dab565b5b611e9e848285611e57565b509392505050565b5f82601f830112611eba57611eb9611da7565b5b8135611eca848260208601611e65565b91505092915050565b5f805f60608486031215611eea57611ee9611b24565b5b5f611ef786828701611d55565b9350506020611f0886828701611ca8565b925050604084013567ffffffffffffffff811115611f2957611f28611b28565b5b611f3586828701611ea6565b9150509250925092565b5f805f60608486031215611f5657611f55611b24565b5b5f611f6386828701611d55565b9350506020611f7486828701611d55565b9250506040611f8586828701611ca8565b9150509250925092565b5f60208284031215611fa457611fa3611b24565b5b5f611fb184828501611d55565b91505092915050565b611fc381611c89565b82525050565b5f602082019050611fdc5f830184611fba565b92915050565b611feb81611bac565b8114611ff5575f80fd5b50565b5f8135905061200681611fe2565b92915050565b5f806040838503121561202257612021611b24565b5b5f61202f85828601611d55565b925050602061204085828601611ff8565b9150509250929050565b5f67ffffffffffffffff82111561206457612063611daf565b5b61206d82611c21565b9050602081019050919050565b5f61208c6120878461204a565b611e0d565b9050828152602081018484840111156120a8576120a7611dab565b5b6120b3848285611e57565b509392505050565b5f82601f8301126120cf576120ce611da7565b5b81356120df84826020860161207a565b91505092915050565b5f805f8060808587031215612100576120ff611b24565b5b5f61210d87828801611d55565b945050602061211e87828801611d55565b935050604061212f87828801611ca8565b925050606085013567ffffffffffffffff8111156121505761214f611b28565b5b61215c878288016120bb565b91505092959194509250565b5f806040838503121561217e5761217d611b24565b5b5f61218b85828601611d55565b925050602061219c85828601611d55565b9150509250929050565b7f4e487b71000000000000000000000000000000000000000000000000000000005f52602260045260245ffd5b5f60028204905060018216806121ea57607f821691505b6020821081036121fd576121fc6121a6565b5b50919050565b7f4552433732313a20617070726f76616c20746f2063757272656e74206f776e655f8201527f7200000000000000000000000000000000000000000000000000000000000000602082015250565b5f61225d602183611be9565b915061226882612203565b604082019050919050565b5f6020820190508181035f83015261228a81612251565b9050919050565b7f4552433732313a20617070726f76652063616c6c6572206973206e6f7420746f5f8201527f6b656e206f776e6572206f7220617070726f76656420666f7220616c6c000000602082015250565b5f6122eb603d83611be9565b91506122f682612291565b604082019050919050565b5f6020820190508181035f830152612318816122df565b9050919050565b7f4552433732313a2063616c6c6572206973206e6f7420746f6b656e206f776e655f8201527f72206f7220617070726f76656400000000000000000000000000000000000000602082015250565b5f612379602d83611be9565b91506123848261231f565b604082019050919050565b5f6020820190508181035f8301526123a68161236d565b9050919050565b7f4552433732313a20696e76616c696420746f6b656e20494400000000000000005f82015250565b5f6123e1601883611be9565b91506123ec826123ad565b602082019050919050565b5f6020820190508181035f83015261240e816123d5565b9050919050565b7f4552433732313a2061646472657373207a65726f206973206e6f7420612076615f8201527f6c6964206f776e65720000000000000000000000000000000000000000000000602082015250565b5f61246f602983611be9565b915061247a82612415565b604082019050919050565b5f6020820190508181035f83015261249c81612463565b9050919050565b5f81905092915050565b5f6124b782611bdf565b6124c181856124a3565b93506124d1818560208601611bf9565b80840191505092915050565b5f6124e882856124ad565b91506124f482846124ad565b91508190509392505050565b7f4f776e61626c653a206e6577206f776e657220697320746865207a65726f20615f8201527f6464726573730000000000000000000000000000000000000000000000000000602082015250565b5f61255a602683611be9565b915061256582612500565b604082019050919050565b5f6020820190508181035f8301526125878161254e565b9050919050565b7f4f776e61626c653a2063616c6c6572206973206e6f7420746865206f776e65725f82015250565b5f6125c2602083611be9565b91506125cd8261258e565b602082019050919050565b5f6020820190508181035f8301526125ef816125b6565b9050919050565b7f4552433732313a206d696e7420746f20746865207a65726f20616464726573735f82015250565b5f61262a602083611be9565b9150612635826125f6565b602082019050919050565b5f6020820190508181035f8301526126578161261e565b9050919050565b7f4552433732313a20746f6b656e20616c7265616479206d696e746564000000005f82015250565b5f612692601c83611be9565b915061269d8261265e565b602082019050919050565b5f6020820190508181035f8301526126bf81612686565b9050919050565b7f45524337323155524953746f726167653a2055524920736574206f66206e6f6e5f8201527f6578697374656e7420746f6b656e000000000000000000000000000000000000602082015250565b5f612720602e83611be9565b915061272b826126c6565b604082019050919050565b5f6020820190508181035f83015261274d81612714565b9050919050565b5f819050815f5260205f209050919050565b5f6020601f8301049050919050565b5f82821b905092915050565b5f600883026127b07fffffffffffffffffffffffffffffffffffffffffffffffffffffffffffffffff82612775565b6127ba8683612775565b95508019841693508086168417925050509392505050565b5f819050919050565b5f6127f56127f06127eb84611c89565b6127d2565b611c89565b9050919050565b5f819050919050565b61280e836127db565b61282261281a826127fc565b848454612781565b825550505050565b5f90565b61283661282a565b612841818484612805565b505050565b5b81811015612864576128595f8261282e565b600181019050612847565b5050565b601f8211156128a95761287a81612754565b61288384612766565b81016020851015612892578190505b6128a661289e85612766565b830182612846565b50505b505050565b5f82821c905092915050565b5f6128c95f19846008026128ae565b1980831691505092915050565b5f6128e183836128ba565b9150826002028217905092915050565b6128fa82611bdf565b67ffffffffffffffff81111561291357612912611daf565b5b61291d82546121d3565b612928828285612868565b5f60209050601f831160018114612959575f8415612947578287015190505b61295185826128d6565b8655506129b8565b601f19841661296786612754565b5f5b8281101561298e57848901518255600182019150602085019450602081019050612969565b868310156129ab57848901516129a7601f8916826128ba565b8355505b6001600288020188555050505b505050505050565b7f4552433732313a207472616e736665722066726f6d20696e636f7272656374205f8201527f6f776e6572000000000000000000000000000000000000000000000000000000602082015250565b5f612a1a602583611be9565b9150612a25826129c0565b604082019050919050565b5f6020820190508181035f830152612a4781612a0e565b9050919050565b7f4552433732313a207472616e7366657220746f20746865207a65726f206164645f8201527f7265737300000000000000000000000000000000000000000000000000000000602082015250565b5f612aa8602483611be9565b9150612ab382612a4e565b604082019050919050565b5f6020820190508181035f830152612ad581612a9c565b9050919050565b7f4552433732313a20617070726f766520746f2063616c6c6572000000000000005f82015250565b5f612b10601983611be9565b9150612b1b82612adc565b602082019050919050565b5f6020820190508181035f830152612b3d81612b04565b9050919050565b7f4552433732313a207472616e7366657220746f206e6f6e2045524337323152655f8201527f63656976657220696d706c656d656e7465720000000000000000000000000000602082015250565b5f612b9e603283611be9565b9150612ba982612b44565b604082019050919050565b5f6020820190508181035f830152612bcb81612b92565b9050919050565b5f81519050919050565b5f82825260208201905092915050565b5f612bf682612bd2565b612c008185612bdc565b9350612c10818560208601611bf9565b612c1981611c21565b840191505092915050565b5f608082019050612c375f830187611d17565b612c446020830186611d17565b612c516040830185611fba565b8181036060830152612c638184612bec565b905095945050505050565b5f81519050612c7c81611b57565b92915050565b5f60208284031215612c9757612c96611b24565b5b5f612ca484828501612c6e565b91505092915050565b7f4e487b71000000000000000000000000000000000000000000000000000000005f52601260045260245ffdfea26469706673582212209a1ba751ab2a9c9d8e9f022a1d5a297ee46d89d4424cb1b91458e3df11ae508964736f6c63430008150033",
  "immutableReferences": {},
  "source": "// SPDX-License-Identifier: MIT\r\npragma solidity ^0.8.0;\r\n\r\nimport \"@openzeppelin/contracts/token/ERC721/extensions/ERC721URIStorage.sol\";\r\nimport \"@openzeppelin/contracts/access/Ownable.sol\";\r\n\r\ncontract MyNFT is ERC721URIStorage, Ownable {\r\n    constructor(\r\n        string memory name,\r\n        string memory symbol\r\n    ) ERC721(name, symbol) {}\r\n\r\n    function mintNFT(\r\n        address to,\r\n        uint256 tokenId,\r\n        string memory tokenURI\r\n    ) public onlyOwner {\r\n        _mint(to, tokenId);\r\n        _setTokenURI(tokenId, tokenURI);\r\n    }\r\n}\r\n",
  "sourcePath": "D:\\Nikunj\\nft project\\Hero\\contracts\\myNFT.sol",
  "compiler": {
    "name": "solc",
    "version": "0.8.21+commit.d9974bed.Emscripten.clang"
  },
  "schemaVersion": "3.4.15",
  "updatedAt": "2023-08-17T13:53:44.458Z",
  "devdoc": {
    "events": {
      "Approval(address,address,uint256)": {
        "details": "Emitted when `owner` enables `approved` to manage the `tokenId` token."
      },
      "ApprovalForAll(address,address,bool)": {
        "details": "Emitted when `owner` enables or disables (`approved`) `operator` to manage all of its assets."
      },
      "BatchMetadataUpdate(uint256,uint256)": {
        "details": "This event emits when the metadata of a range of tokens is changed. So that the third-party platforms such as NFT market could timely update the images and related attributes of the NFTs."
      },
      "MetadataUpdate(uint256)": {
        "details": "This event emits when the metadata of a token is changed. So that the third-party platforms such as NFT market could timely update the images and related attributes of the NFT."
      },
      "Transfer(address,address,uint256)": {
        "details": "Emitted when `tokenId` token is transferred from `from` to `to`."
      }
    },
    "kind": "dev",
    "methods": {
      "approve(address,uint256)": {
        "details": "See {IERC721-approve}."
      },
      "balanceOf(address)": {
        "details": "See {IERC721-balanceOf}."
      },
      "getApproved(uint256)": {
        "details": "See {IERC721-getApproved}."
      },
      "isApprovedForAll(address,address)": {
        "details": "See {IERC721-isApprovedForAll}."
      },
      "name()": {
        "details": "See {IERC721Metadata-name}."
      },
      "owner()": {
        "details": "Returns the address of the current owner."
      },
      "ownerOf(uint256)": {
        "details": "See {IERC721-ownerOf}."
      },
      "renounceOwnership()": {
        "details": "Leaves the contract without owner. It will not be possible to call `onlyOwner` functions. Can only be called by the current owner. NOTE: Renouncing ownership will leave the contract without an owner, thereby disabling any functionality that is only available to the owner."
      },
      "safeTransferFrom(address,address,uint256)": {
        "details": "See {IERC721-safeTransferFrom}."
      },
      "safeTransferFrom(address,address,uint256,bytes)": {
        "details": "See {IERC721-safeTransferFrom}."
      },
      "setApprovalForAll(address,bool)": {
        "details": "See {IERC721-setApprovalForAll}."
      },
      "supportsInterface(bytes4)": {
        "details": "See {IERC165-supportsInterface}"
      },
      "symbol()": {
        "details": "See {IERC721Metadata-symbol}."
      },
      "tokenURI(uint256)": {
        "details": "See {IERC721Metadata-tokenURI}."
      },
      "transferFrom(address,address,uint256)": {
        "details": "See {IERC721-transferFrom}."
      },
      "transferOwnership(address)": {
        "details": "Transfers ownership of the contract to a new account (`newOwner`). Can only be called by the current owner."
      }
    },
    "version": 1
  },
  "userdoc": {
    "kind": "user",
    "methods": {},
    "version": 1
  }
}